{
  "_format": "hh-sol-artifact-1",
  "contractName": "BlockNewsMediaTokenV2",
  "abi": [
    {
      "inputs": [],
      "stateMutability": "nonpayable",
      "type": "constructor"
    },
    {
      "anonymous": false,
      "inputs": [
        {
          "indexed": true,
          "internalType": "address",
          "name": "owner",
          "type": "address"
        },
        {
          "indexed": true,
          "internalType": "address",
          "name": "approved",
          "type": "address"
        },
        {
          "indexed": true,
          "internalType": "uint256",
          "name": "tokenId",
          "type": "uint256"
        }
      ],
      "name": "Approval",
      "type": "event"
    },
    {
      "anonymous": false,
      "inputs": [
        {
          "indexed": true,
          "internalType": "address",
          "name": "owner",
          "type": "address"
        },
        {
          "indexed": true,
          "internalType": "address",
          "name": "operator",
          "type": "address"
        },
        {
          "indexed": false,
          "internalType": "bool",
          "name": "approved",
          "type": "bool"
        }
      ],
      "name": "ApprovalForAll",
      "type": "event"
    },
    {
      "anonymous": false,
      "inputs": [
        {
          "indexed": false,
          "internalType": "uint256",
          "name": "_fromTokenId",
          "type": "uint256"
        },
        {
          "indexed": false,
          "internalType": "uint256",
          "name": "_toTokenId",
          "type": "uint256"
        }
      ],
      "name": "BatchMetadataUpdate",
      "type": "event"
    },
    {
      "anonymous": false,
      "inputs": [
        {
          "indexed": false,
          "internalType": "uint256",
          "name": "_tokenId",
          "type": "uint256"
        }
      ],
      "name": "MetadataUpdate",
      "type": "event"
    },
    {
      "anonymous": false,
      "inputs": [
        {
          "indexed": true,
          "internalType": "address",
          "name": "previousOwner",
          "type": "address"
        },
        {
          "indexed": true,
          "internalType": "address",
          "name": "newOwner",
          "type": "address"
        }
      ],
      "name": "OwnershipTransferred",
      "type": "event"
    },
    {
      "anonymous": false,
      "inputs": [
        {
          "indexed": false,
          "internalType": "address",
          "name": "account",
          "type": "address"
        }
      ],
      "name": "Paused",
      "type": "event"
    },
    {
      "anonymous": false,
      "inputs": [
        {
          "indexed": true,
          "internalType": "bytes32",
          "name": "role",
          "type": "bytes32"
        },
        {
          "indexed": true,
          "internalType": "bytes32",
          "name": "previousAdminRole",
          "type": "bytes32"
        },
        {
          "indexed": true,
          "internalType": "bytes32",
          "name": "newAdminRole",
          "type": "bytes32"
        }
      ],
      "name": "RoleAdminChanged",
      "type": "event"
    },
    {
      "anonymous": false,
      "inputs": [
        {
          "indexed": true,
          "internalType": "bytes32",
          "name": "role",
          "type": "bytes32"
        },
        {
          "indexed": true,
          "internalType": "address",
          "name": "account",
          "type": "address"
        },
        {
          "indexed": true,
          "internalType": "address",
          "name": "sender",
          "type": "address"
        }
      ],
      "name": "RoleGranted",
      "type": "event"
    },
    {
      "anonymous": false,
      "inputs": [
        {
          "indexed": true,
          "internalType": "bytes32",
          "name": "role",
          "type": "bytes32"
        },
        {
          "indexed": true,
          "internalType": "address",
          "name": "account",
          "type": "address"
        },
        {
          "indexed": true,
          "internalType": "address",
          "name": "sender",
          "type": "address"
        }
      ],
      "name": "RoleRevoked",
      "type": "event"
    },
    {
      "anonymous": false,
      "inputs": [
        {
          "indexed": false,
          "internalType": "address",
          "name": "_from",
          "type": "address"
        },
        {
          "indexed": false,
          "internalType": "string",
          "name": "_uri",
          "type": "string"
        }
      ],
      "name": "TokenMinted",
      "type": "event"
    },
    {
      "anonymous": false,
      "inputs": [
        {
          "indexed": true,
          "internalType": "address",
          "name": "from",
          "type": "address"
        },
        {
          "indexed": true,
          "internalType": "address",
          "name": "to",
          "type": "address"
        },
        {
          "indexed": true,
          "internalType": "uint256",
          "name": "tokenId",
          "type": "uint256"
        }
      ],
      "name": "Transfer",
      "type": "event"
    },
    {
      "anonymous": false,
      "inputs": [
        {
          "indexed": false,
          "internalType": "address",
          "name": "account",
          "type": "address"
        }
      ],
      "name": "Unpaused",
      "type": "event"
    },
    {
      "inputs": [],
      "name": "DEFAULT_ADMIN_ROLE",
      "outputs": [
        {
          "internalType": "bytes32",
          "name": "",
          "type": "bytes32"
        }
      ],
      "stateMutability": "view",
      "type": "function"
    },
    {
      "inputs": [],
      "name": "PAUSER_ROLE",
      "outputs": [
        {
          "internalType": "bytes32",
          "name": "",
          "type": "bytes32"
        }
      ],
      "stateMutability": "view",
      "type": "function"
    },
    {
      "inputs": [
        {
          "internalType": "address",
          "name": "to",
          "type": "address"
        },
        {
          "internalType": "uint256",
          "name": "tokenId",
          "type": "uint256"
        }
      ],
      "name": "approve",
      "outputs": [],
      "stateMutability": "nonpayable",
      "type": "function"
    },
    {
      "inputs": [
        {
          "internalType": "address",
          "name": "owner",
          "type": "address"
        }
      ],
      "name": "balanceOf",
      "outputs": [
        {
          "internalType": "uint256",
          "name": "",
          "type": "uint256"
        }
      ],
      "stateMutability": "view",
      "type": "function"
    },
    {
      "inputs": [
        {
          "internalType": "uint256",
          "name": "tokenId",
          "type": "uint256"
        }
      ],
      "name": "burn",
      "outputs": [],
      "stateMutability": "nonpayable",
      "type": "function"
    },
    {
      "inputs": [
        {
          "internalType": "string",
          "name": "uriOfToken",
          "type": "string"
        }
      ],
      "name": "createItem",
      "outputs": [
        {
          "internalType": "uint256",
          "name": "",
          "type": "uint256"
        }
      ],
      "stateMutability": "payable",
      "type": "function"
    },
    {
      "inputs": [
        {
          "internalType": "uint256",
          "name": "tokenId",
          "type": "uint256"
        }
      ],
      "name": "destoryItem",
      "outputs": [
        {
          "internalType": "bool",
          "name": "",
          "type": "bool"
        }
      ],
      "stateMutability": "nonpayable",
      "type": "function"
    },
    {
      "inputs": [
        {
          "internalType": "uint256",
          "name": "tokenId",
          "type": "uint256"
        }
      ],
      "name": "getApproved",
      "outputs": [
        {
          "internalType": "address",
          "name": "",
          "type": "address"
        }
      ],
      "stateMutability": "view",
      "type": "function"
    },
    {
      "inputs": [
        {
          "internalType": "bytes32",
          "name": "role",
          "type": "bytes32"
        }
      ],
      "name": "getRoleAdmin",
      "outputs": [
        {
          "internalType": "bytes32",
          "name": "",
          "type": "bytes32"
        }
      ],
      "stateMutability": "view",
      "type": "function"
    },
    {
      "inputs": [
        {
          "internalType": "bytes32",
          "name": "role",
          "type": "bytes32"
        },
        {
          "internalType": "address",
          "name": "account",
          "type": "address"
        }
      ],
      "name": "grantRole",
      "outputs": [],
      "stateMutability": "nonpayable",
      "type": "function"
    },
    {
      "inputs": [
        {
          "internalType": "bytes32",
          "name": "role",
          "type": "bytes32"
        },
        {
          "internalType": "address",
          "name": "account",
          "type": "address"
        }
      ],
      "name": "hasRole",
      "outputs": [
        {
          "internalType": "bool",
          "name": "",
          "type": "bool"
        }
      ],
      "stateMutability": "view",
      "type": "function"
    },
    {
      "inputs": [
        {
          "internalType": "address",
          "name": "owner",
          "type": "address"
        },
        {
          "internalType": "address",
          "name": "operator",
          "type": "address"
        }
      ],
      "name": "isApprovedForAll",
      "outputs": [
        {
          "internalType": "bool",
          "name": "",
          "type": "bool"
        }
      ],
      "stateMutability": "view",
      "type": "function"
    },
    {
      "inputs": [
        {
          "internalType": "uint256",
          "name": "",
          "type": "uint256"
        }
      ],
      "name": "items",
      "outputs": [
        {
          "internalType": "uint256",
          "name": "id",
          "type": "uint256"
        },
        {
          "internalType": "address",
          "name": "creator",
          "type": "address"
        },
        {
          "internalType": "string",
          "name": "uri",
          "type": "string"
        }
      ],
      "stateMutability": "view",
      "type": "function"
    },
    {
      "inputs": [],
      "name": "name",
      "outputs": [
        {
          "internalType": "string",
          "name": "",
          "type": "string"
        }
      ],
      "stateMutability": "view",
      "type": "function"
    },
    {
      "inputs": [],
      "name": "owner",
      "outputs": [
        {
          "internalType": "address",
          "name": "",
          "type": "address"
        }
      ],
      "stateMutability": "view",
      "type": "function"
    },
    {
      "inputs": [
        {
          "internalType": "uint256",
          "name": "tokenId",
          "type": "uint256"
        }
      ],
      "name": "ownerOf",
      "outputs": [
        {
          "internalType": "address",
          "name": "",
          "type": "address"
        }
      ],
      "stateMutability": "view",
      "type": "function"
    },
    {
      "inputs": [],
      "name": "pause",
      "outputs": [],
      "stateMutability": "nonpayable",
      "type": "function"
    },
    {
      "inputs": [],
      "name": "paused",
      "outputs": [
        {
          "internalType": "bool",
          "name": "",
          "type": "bool"
        }
      ],
      "stateMutability": "view",
      "type": "function"
    },
    {
      "inputs": [],
      "name": "renounceOwnership",
      "outputs": [],
      "stateMutability": "nonpayable",
      "type": "function"
    },
    {
      "inputs": [
        {
          "internalType": "bytes32",
          "name": "role",
          "type": "bytes32"
        },
        {
          "internalType": "address",
          "name": "account",
          "type": "address"
        }
      ],
      "name": "renounceRole",
      "outputs": [],
      "stateMutability": "nonpayable",
      "type": "function"
    },
    {
      "inputs": [
        {
          "internalType": "bytes32",
          "name": "role",
          "type": "bytes32"
        },
        {
          "internalType": "address",
          "name": "account",
          "type": "address"
        }
      ],
      "name": "revokeRole",
      "outputs": [],
      "stateMutability": "nonpayable",
      "type": "function"
    },
    {
      "inputs": [
        {
          "internalType": "uint256",
          "name": "",
          "type": "uint256"
        },
        {
          "internalType": "uint256",
          "name": "salesPrice",
          "type": "uint256"
        }
      ],
      "name": "royaltyInfo",
      "outputs": [
        {
          "internalType": "address",
          "name": "receiver",
          "type": "address"
        },
        {
          "internalType": "uint256",
          "name": "royaltyAmount",
          "type": "uint256"
        }
      ],
      "stateMutability": "view",
      "type": "function"
    },
    {
      "inputs": [
        {
          "internalType": "address",
          "name": "from",
          "type": "address"
        },
        {
          "internalType": "address",
          "name": "to",
          "type": "address"
        },
        {
          "internalType": "uint256",
          "name": "tokenId",
          "type": "uint256"
        }
      ],
      "name": "safeTransferFrom",
      "outputs": [],
      "stateMutability": "nonpayable",
      "type": "function"
    },
    {
      "inputs": [
        {
          "internalType": "address",
          "name": "from",
          "type": "address"
        },
        {
          "internalType": "address",
          "name": "to",
          "type": "address"
        },
        {
          "internalType": "uint256",
          "name": "tokenId",
          "type": "uint256"
        },
        {
          "internalType": "bytes",
          "name": "data",
          "type": "bytes"
        }
      ],
      "name": "safeTransferFrom",
      "outputs": [],
      "stateMutability": "nonpayable",
      "type": "function"
    },
    {
      "inputs": [
        {
          "internalType": "address",
          "name": "operator",
          "type": "address"
        },
        {
          "internalType": "bool",
          "name": "approved",
          "type": "bool"
        }
      ],
      "name": "setApprovalForAll",
      "outputs": [],
      "stateMutability": "nonpayable",
      "type": "function"
    },
    {
      "inputs": [
        {
          "internalType": "address",
          "name": "recipient",
          "type": "address"
        },
        {
          "internalType": "uint256",
          "name": "value",
          "type": "uint256"
        }
      ],
      "name": "setRoyalties",
      "outputs": [],
      "stateMutability": "nonpayable",
      "type": "function"
    },
    {
      "inputs": [
        {
          "internalType": "bytes4",
          "name": "interfaceId",
          "type": "bytes4"
        }
      ],
      "name": "supportsInterface",
      "outputs": [
        {
          "internalType": "bool",
          "name": "",
          "type": "bool"
        }
      ],
      "stateMutability": "view",
      "type": "function"
    },
    {
      "inputs": [],
      "name": "symbol",
      "outputs": [
        {
          "internalType": "string",
          "name": "",
          "type": "string"
        }
      ],
      "stateMutability": "view",
      "type": "function"
    },
    {
      "inputs": [
        {
          "internalType": "uint256",
          "name": "tokenId",
          "type": "uint256"
        }
      ],
      "name": "tokenURI",
      "outputs": [
        {
          "internalType": "string",
          "name": "",
          "type": "string"
        }
      ],
      "stateMutability": "view",
      "type": "function"
    },
    {
      "inputs": [
        {
          "internalType": "address",
          "name": "from",
          "type": "address"
        },
        {
          "internalType": "address",
          "name": "to",
          "type": "address"
        },
        {
          "internalType": "uint256",
          "name": "tokenId",
          "type": "uint256"
        }
      ],
      "name": "transferFrom",
      "outputs": [],
      "stateMutability": "nonpayable",
      "type": "function"
    },
    {
      "inputs": [
        {
          "internalType": "address",
          "name": "newOwner",
          "type": "address"
        }
      ],
      "name": "transferOwnership",
      "outputs": [],
      "stateMutability": "nonpayable",
      "type": "function"
    },
    {
      "inputs": [],
      "name": "unpause",
      "outputs": [],
      "stateMutability": "nonpayable",
      "type": "function"
    },
    {
      "inputs": [],
      "name": "withdraw",
      "outputs": [],
      "stateMutability": "payable",
      "type": "function"
    }
  ],
  "bytecode": "0x60806040523480156200001157600080fd5b506040518060400160405280601081526020016f213637b1b5a732bbb9a6b2b234b0ab1960811b815250604051806040016040528060048152602001632127269960e11b81525081600090816200006991906200032d565b5060016200007882826200032d565b50506007805460ff19169055506200009033620000f0565b6200009d60003362000142565b620000c97f65d7a28e3265b37a6474929f336521b332c1681b933f6cb9f3376673440d862a3362000142565b620000ea7345b58919a70bfda15d4bb0a8df752a671a318d7e60af620001e7565b620003f9565b600980546001600160a01b038381166001600160a01b0319831681179093556040519116919082907f8be0079c531659141344cd1fd0a4f28419497f9722a3daafe3b4186f6b6457e090600090a35050565b60008281526008602090815260408083206001600160a01b038516845290915290205460ff16620001e35760008281526008602090815260408083206001600160a01b03851684529091529020805460ff19166001179055620001a23390565b6001600160a01b0316816001600160a01b0316837f2f8788117e7eff1d82e926ec794901d17c78024a50270940304540a733656f0d60405160405180910390a45b5050565b6127108111156200023e5760405162461bcd60e51b815260206004820152601a60248201527f45524332393831526f79616c746965733a20546f6f2068696768000000000000604482015260640160405180910390fd5b604080518082019091526001600160a01b0390921680835262ffffff9091166020909201829052600c8054600160a01b9093026001600160b81b0319909316909117919091179055565b634e487b7160e01b600052604160045260246000fd5b600181811c90821680620002b357607f821691505b602082108103620002d457634e487b7160e01b600052602260045260246000fd5b50919050565b601f8211156200032857600081815260208120601f850160051c81016020861015620003035750805b601f850160051c820191505b8181101562000324578281556001016200030f565b5050505b505050565b81516001600160401b0381111562000349576200034962000288565b62000361816200035a84546200029e565b84620002da565b602080601f831160018114620003995760008415620003805750858301515b600019600386901b1c1916600185901b17855562000324565b600085815260208120601f198616915b82811015620003ca57888601518255948401946001909101908401620003a9565b5085821015620003e95787850151600019600388901b60f8161c191681555b5050505050600190811b01905550565b61295080620004096000396000f3fe6080604052600436106101ee5760003560e01c806370a082311161010d578063a22cb465116100a0578063d547741f1161006f578063d547741f1461058a578063e63ab1e9146105aa578063e985e9c5146105de578063e9f3d5a714610627578063f2fde38b1461064757600080fd5b8063a22cb465146104fb578063b88d4fde1461051b578063bfb231d21461053b578063c87b56dd1461056a57600080fd5b80638da5cb5b116100dc5780638da5cb5b1461049357806391d14854146104b157806395d89b41146104d1578063a217fddf146104e657600080fd5b806370a0823114610429578063715018a6146104495780638456cb591461045e5780638c7ea24b1461047357600080fd5b806336568abe1161018557806342842e0e1161015457806342842e0e146103b157806342966c68146103d15780635c975abb146103f15780636352211e1461040957600080fd5b806336568abe146103615780633ccfd60b146103815780633d54eebb146103895780633f4ba83a1461039c57600080fd5b806323b872dd116101c157806323b872dd146102a4578063248a9ca3146102c45780632a55205a146103025780632f2ff15d1461034157600080fd5b806301ffc9a7146101f357806306fdde0314610228578063081812fc1461024a578063095ea7b314610282575b600080fd5b3480156101ff57600080fd5b5061021361020e3660046121d4565b610667565b60405190151581526020015b60405180910390f35b34801561023457600080fd5b5061023d610692565b60405161021f9190612241565b34801561025657600080fd5b5061026a610265366004612254565b610724565b6040516001600160a01b03909116815260200161021f565b34801561028e57600080fd5b506102a261029d366004612284565b61074b565b005b3480156102b057600080fd5b506102a26102bf3660046122ae565b610865565b3480156102d057600080fd5b506102f46102df366004612254565b60009081526008602052604090206001015490565b60405190815260200161021f565b34801561030e57600080fd5b5061032261031d3660046122ea565b610897565b604080516001600160a01b03909316835260208301919091520161021f565b34801561034d57600080fd5b506102a261035c36600461230c565b6108ec565b34801561036d57600080fd5b506102a261037c36600461230c565b610911565b6102a261098f565b6102f46103973660046123c4565b6109ef565b3480156103a857600080fd5b506102a2610b85565b3480156103bd57600080fd5b506102a26103cc3660046122ae565b610bb7565b3480156103dd57600080fd5b506102a26103ec366004612254565b610bd2565b3480156103fd57600080fd5b5060075460ff16610213565b34801561041557600080fd5b5061026a610424366004612254565b610c00565b34801561043557600080fd5b506102f461044436600461240d565b610c60565b34801561045557600080fd5b506102a2610ce6565b34801561046a57600080fd5b506102a2610cfa565b34801561047f57600080fd5b506102a261048e366004612284565b610d2c565b34801561049f57600080fd5b506009546001600160a01b031661026a565b3480156104bd57600080fd5b506102136104cc36600461230c565b610d41565b3480156104dd57600080fd5b5061023d610d6c565b3480156104f257600080fd5b506102f4600081565b34801561050757600080fd5b506102a2610516366004612428565b610d7b565b34801561052757600080fd5b506102a2610536366004612464565b610d86565b34801561054757600080fd5b5061055b610556366004612254565b610dbe565b60405161021f939291906124e0565b34801561057657600080fd5b5061023d610585366004612254565b610e73565b34801561059657600080fd5b506102a26105a536600461230c565b610eeb565b3480156105b657600080fd5b506102f47f65d7a28e3265b37a6474929f336521b332c1681b933f6cb9f3376673440d862a81565b3480156105ea57600080fd5b506102136105f9366004612513565b6001600160a01b03918216600090815260056020908152604080832093909416825291909152205460ff1690565b34801561063357600080fd5b50610213610642366004612254565b610f10565b34801561065357600080fd5b506102a261066236600461240d565b610fcb565b60006001600160e01b0319821663152a902d60e11b148061068c575061068c82611041565b92915050565b6060600080546106a19061253d565b80601f01602080910402602001604051908101604052809291908181526020018280546106cd9061253d565b801561071a5780601f106106ef5761010080835404028352916020019161071a565b820191906000526020600020905b8154815290600101906020018083116106fd57829003601f168201915b5050505050905090565b600061072f82611066565b506000908152600460205260409020546001600160a01b031690565b600061075682610c00565b9050806001600160a01b0316836001600160a01b0316036107c85760405162461bcd60e51b815260206004820152602160248201527f4552433732313a20617070726f76616c20746f2063757272656e74206f776e656044820152603960f91b60648201526084015b60405180910390fd5b336001600160a01b03821614806107e457506107e481336105f9565b6108565760405162461bcd60e51b815260206004820152603d60248201527f4552433732313a20617070726f76652063616c6c6572206973206e6f7420746f60448201527f6b656e206f776e6572206f7220617070726f76656420666f7220616c6c00000060648201526084016107bf565b61086083836110b6565b505050565b610870335b82611124565b61088c5760405162461bcd60e51b81526004016107bf90612577565b6108608383836111a3565b60408051808201909152600c546001600160a01b038116808352600160a01b90910462ffffff16602083018190529091600091612710906108d890866125da565b6108e291906125f1565b9150509250929050565b60008281526008602052604090206001015461090781611314565b610860838361131e565b6001600160a01b03811633146109815760405162461bcd60e51b815260206004820152602f60248201527f416363657373436f6e74726f6c3a2063616e206f6e6c792072656e6f756e636560448201526e103937b632b9903337b91039b2b63360891b60648201526084016107bf565b61098b82826113a4565b5050565b61099761140b565b604051600090339047908381818185875af1925050503d80600081146109d9576040519150601f19603f3d011682016040523d82523d6000602084013e6109de565b606091505b50509050806109ec57600080fd5b50565b60006109f9611465565b6000825111610a5f5760405162461bcd60e51b815260206004820152602c60248201527f426c6f636b4e6577734d65646961546f6b656e56323a204e6f20546f6b656e2060448201526b155492481cdd5c1c1b1a595960a21b60648201526084016107bf565b34662386f26fc1000014610aad5760405162461bcd60e51b8152602060048201526015602482015274506c656173652070617920302e3031204d6174696360581b60448201526064016107bf565b610abb600b80546001019055565b6000610ac6600b5490565b9050610ad233826114ab565b604080516060810182528281523360208083019182528284018781526000868152600a9092529390208251815590516001820180546001600160a01b0319166001600160a01b0390921691909117905591519091906002820190610b369082612661565b50905050610b4481846114c5565b7fb1fdd3f41eb81d0019cfe7749e6ad19e36fd3652c4ee0be5533ddbab487f1e023384604051610b75929190612721565b60405180910390a190505b919050565b7f65d7a28e3265b37a6474929f336521b332c1681b933f6cb9f3376673440d862a610baf81611314565b6109ec611581565b61086083838360405180602001604052806000815250610d86565b610bdb3361086a565b610bf75760405162461bcd60e51b81526004016107bf90612577565b6109ec816115d3565b6000818152600260205260408120546001600160a01b03168061068c5760405162461bcd60e51b8152602060048201526018602482015277115490cdcc8c4e881a5b9d985b1a59081d1bdad95b88125160421b60448201526064016107bf565b60006001600160a01b038216610cca5760405162461bcd60e51b815260206004820152602960248201527f4552433732313a2061646472657373207a65726f206973206e6f7420612076616044820152683634b21037bbb732b960b91b60648201526084016107bf565b506001600160a01b031660009081526003602052604090205490565b610cee61140b565b610cf860006115dc565b565b7f65d7a28e3265b37a6474929f336521b332c1681b933f6cb9f3376673440d862a610d2481611314565b6109ec61162e565b6000610d3781611314565b610860838361166b565b60009182526008602090815260408084206001600160a01b0393909316845291905290205460ff1690565b6060600180546106a19061253d565b61098b338383611707565b610d903383611124565b610dac5760405162461bcd60e51b81526004016107bf90612577565b610db8848484846117d5565b50505050565b600a6020526000908152604090208054600182015460028301805492936001600160a01b0390921692610df09061253d565b80601f0160208091040260200160405190810160405280929190818152602001828054610e1c9061253d565b8015610e695780601f10610e3e57610100808354040283529160200191610e69565b820191906000526020600020905b815481529060010190602001808311610e4c57829003601f168201915b5050505050905083565b6060610e7e82611808565b610ee25760405162461bcd60e51b815260206004820152602f60248201527f4552433732314d657461646174613a2055524920717565727920666f72206e6f60448201526e3732bc34b9ba32b73a103a37b5b2b760891b60648201526084016107bf565b61068c82611825565b600082815260086020526040902060010154610f0681611314565b61086083836113a4565b6000610f1a611465565b610f2382611808565b610f875760405162461bcd60e51b815260206004820152602f60248201527f426c6f636b4e6577734d65646961546f6b656e3a204275726e20666f72206e6f60448201526e3732bc34b9ba32b73a103a37b5b2b760891b60648201526084016107bf565b6000828152600a602052604081208181556001810180546001600160a01b031916905590610fb86002830182612170565b5050610fc382610bd2565b506001919050565b610fd361140b565b6001600160a01b0381166110385760405162461bcd60e51b815260206004820152602660248201527f4f776e61626c653a206e6577206f776e657220697320746865207a65726f206160448201526564647265737360d01b60648201526084016107bf565b6109ec816115dc565b60006001600160e01b03198216637965db0b60e01b148061068c575061068c8261192d565b61106f81611808565b6109ec5760405162461bcd60e51b8152602060048201526018602482015277115490cdcc8c4e881a5b9d985b1a59081d1bdad95b88125160421b60448201526064016107bf565b600081815260046020526040902080546001600160a01b0319166001600160a01b03841690811790915581906110eb82610c00565b6001600160a01b03167f8c5be1e5ebec7d5bd14f71427d1e84f3dd0314c0f7b2291e5b200ac8c7c3b92560405160405180910390a45050565b60008061113083610c00565b9050806001600160a01b0316846001600160a01b0316148061117757506001600160a01b0380821660009081526005602090815260408083209388168352929052205460ff165b8061119b5750836001600160a01b031661119084610724565b6001600160a01b0316145b949350505050565b826001600160a01b03166111b682610c00565b6001600160a01b0316146111dc5760405162461bcd60e51b81526004016107bf90612745565b6001600160a01b03821661123e5760405162461bcd60e51b8152602060048201526024808201527f4552433732313a207472616e7366657220746f20746865207a65726f206164646044820152637265737360e01b60648201526084016107bf565b61124b8383836001611952565b826001600160a01b031661125e82610c00565b6001600160a01b0316146112845760405162461bcd60e51b81526004016107bf90612745565b600081815260046020908152604080832080546001600160a01b03199081169091556001600160a01b0387811680865260038552838620805460001901905590871680865283862080546001019055868652600290945282852080549092168417909155905184937fddf252ad1be2c89b69c2b068fc378daa952ba7f163c4a11628f55a4df523b3ef91a4505050565b6109ec813361195f565b6113288282610d41565b61098b5760008281526008602090815260408083206001600160a01b03851684529091529020805460ff191660011790556113603390565b6001600160a01b0316816001600160a01b0316837f2f8788117e7eff1d82e926ec794901d17c78024a50270940304540a733656f0d60405160405180910390a45050565b6113ae8282610d41565b1561098b5760008281526008602090815260408083206001600160a01b0385168085529252808320805460ff1916905551339285917ff6391f5c32d9c69d2a47ea670b442974b53935d1edc7fd64eb21e047a839171b9190a45050565b6009546001600160a01b03163314610cf85760405162461bcd60e51b815260206004820181905260248201527f4f776e61626c653a2063616c6c6572206973206e6f7420746865206f776e657260448201526064016107bf565b60075460ff1615610cf85760405162461bcd60e51b815260206004820152601060248201526f14185d5cd8589b194e881c185d5cd95960821b60448201526064016107bf565b61098b8282604051806020016040528060008152506119b8565b6114ce82611808565b6115315760405162461bcd60e51b815260206004820152602e60248201527f45524337323155524953746f726167653a2055524920736574206f66206e6f6e60448201526d32bc34b9ba32b73a103a37b5b2b760911b60648201526084016107bf565b60008281526006602052604090206115498282612661565b506040518281527ff8e1a15aba9398e019f0b49df1a4fde98ee17ae345cb5f6b5e2c27f5033e8ce79060200160405180910390a15050565b6115896119eb565b6007805460ff191690557f5db9ee0a495bf2e6ff9c91a7834c1ba4fdd244a5e8aa4e537bd38aeae4b073aa335b6040516001600160a01b03909116815260200160405180910390a1565b6109ec81611a34565b600980546001600160a01b038381166001600160a01b0319831681179093556040519116919082907f8be0079c531659141344cd1fd0a4f28419497f9722a3daafe3b4186f6b6457e090600090a35050565b611636611465565b6007805460ff191660011790557f62e78cea01bee320cd4e420270b5ea74000d11b0c9f74754ebdbfc544b05a2586115b63390565b6127108111156116bd5760405162461bcd60e51b815260206004820152601a60248201527f45524332393831526f79616c746965733a20546f6f206869676800000000000060448201526064016107bf565b604080518082019091526001600160a01b0390921680835262ffffff9091166020909201829052600c8054600160a01b9093026001600160b81b0319909316909117919091179055565b816001600160a01b0316836001600160a01b0316036117685760405162461bcd60e51b815260206004820152601960248201527f4552433732313a20617070726f766520746f2063616c6c65720000000000000060448201526064016107bf565b6001600160a01b03838116600081815260056020908152604080832094871680845294825291829020805460ff191686151590811790915591519182527f17307eab39ab6107e8899845ad3d59bd9653f200f220920489ca2b5937696c31910160405180910390a3505050565b6117e08484846111a3565b6117ec84848484611a74565b610db85760405162461bcd60e51b81526004016107bf9061278a565b6000908152600260205260409020546001600160a01b0316151590565b606061183082611066565b600082815260066020526040812080546118499061253d565b80601f01602080910402602001604051908101604052809291908181526020018280546118759061253d565b80156118c25780601f10611897576101008083540402835291602001916118c2565b820191906000526020600020905b8154815290600101906020018083116118a557829003601f168201915b5050505050905060006118e060408051602081019091526000815290565b905080516000036118f2575092915050565b81511561192457808260405160200161190c9291906127dc565b60405160208183030381529060405292505050919050565b61119b84611b75565b60006001600160e01b03198216632483248360e11b148061068c575061068c82611be9565b61195a611465565b610db8565b6119698282610d41565b61098b5761197681611c39565b611981836020611c4b565b60405160200161199292919061280b565b60408051601f198184030181529082905262461bcd60e51b82526107bf91600401612241565b6119c28383611de7565b6119cf6000848484611a74565b6108605760405162461bcd60e51b81526004016107bf9061278a565b60075460ff16610cf85760405162461bcd60e51b815260206004820152601460248201527314185d5cd8589b194e881b9bdd081c185d5cd95960621b60448201526064016107bf565b611a3d81611f62565b60008181526006602052604090208054611a569061253d565b1590506109ec5760008181526006602052604081206109ec91612170565b60006001600160a01b0384163b15611b6a57604051630a85bd0160e11b81526001600160a01b0385169063150b7a0290611ab8903390899088908890600401612880565b6020604051808303816000875af1925050508015611af3575060408051601f3d908101601f19168201909252611af0918101906128bd565b60015b611b50573d808015611b21576040519150601f19603f3d011682016040523d82523d6000602084013e611b26565b606091505b508051600003611b485760405162461bcd60e51b81526004016107bf9061278a565b805181602001fd5b6001600160e01b031916630a85bd0160e11b14905061119b565b506001949350505050565b6060611b8082611066565b6000611b9760408051602081019091526000815290565b90506000815111611bb75760405180602001604052806000815250611be2565b80611bc184612005565b604051602001611bd29291906127dc565b6040516020818303038152906040525b9392505050565b60006001600160e01b031982166380ac58cd60e01b1480611c1a57506001600160e01b03198216635b5e139f60e01b145b8061068c57506301ffc9a760e01b6001600160e01b031983161461068c565b606061068c6001600160a01b03831660145b60606000611c5a8360026125da565b611c659060026128da565b67ffffffffffffffff811115611c7d57611c7d612338565b6040519080825280601f01601f191660200182016040528015611ca7576020820181803683370190505b509050600360fc1b81600081518110611cc257611cc26128ed565b60200101906001600160f81b031916908160001a905350600f60fb1b81600181518110611cf157611cf16128ed565b60200101906001600160f81b031916908160001a9053506000611d158460026125da565b611d209060016128da565b90505b6001811115611d98576f181899199a1a9b1b9c1cb0b131b232b360811b85600f1660108110611d5457611d546128ed565b1a60f81b828281518110611d6a57611d6a6128ed565b60200101906001600160f81b031916908160001a90535060049490941c93611d9181612903565b9050611d23565b508315611be25760405162461bcd60e51b815260206004820181905260248201527f537472696e67733a20686578206c656e67746820696e73756666696369656e7460448201526064016107bf565b6001600160a01b038216611e3d5760405162461bcd60e51b815260206004820181905260248201527f4552433732313a206d696e7420746f20746865207a65726f206164647265737360448201526064016107bf565b611e4681611808565b15611e935760405162461bcd60e51b815260206004820152601c60248201527f4552433732313a20746f6b656e20616c7265616479206d696e7465640000000060448201526064016107bf565b611ea1600083836001611952565b611eaa81611808565b15611ef75760405162461bcd60e51b815260206004820152601c60248201527f4552433732313a20746f6b656e20616c7265616479206d696e7465640000000060448201526064016107bf565b6001600160a01b038216600081815260036020908152604080832080546001019055848352600290915280822080546001600160a01b0319168417905551839291907fddf252ad1be2c89b69c2b068fc378daa952ba7f163c4a11628f55a4df523b3ef908290a45050565b6000611f6d82610c00565b9050611f7d816000846001611952565b611f8682610c00565b600083815260046020908152604080832080546001600160a01b03199081169091556001600160a01b0385168085526003845282852080546000190190558785526002909352818420805490911690555192935084927fddf252ad1be2c89b69c2b068fc378daa952ba7f163c4a11628f55a4df523b3ef908390a45050565b6060600061201283612098565b600101905060008167ffffffffffffffff81111561203257612032612338565b6040519080825280601f01601f19166020018201604052801561205c576020820181803683370190505b5090508181016020015b600019016f181899199a1a9b1b9c1cb0b131b232b360811b600a86061a8153600a850494508461206657509392505050565b60008072184f03e93ff9f4daa797ed6e38ed64bf6a1f0160401b83106120d75772184f03e93ff9f4daa797ed6e38ed64bf6a1f0160401b830492506040015b6d04ee2d6d415b85acef81000000008310612103576d04ee2d6d415b85acef8100000000830492506020015b662386f26fc10000831061212157662386f26fc10000830492506010015b6305f5e1008310612139576305f5e100830492506008015b612710831061214d57612710830492506004015b6064831061215f576064830492506002015b600a831061068c5760010192915050565b50805461217c9061253d565b6000825580601f1061218c575050565b601f0160209004906000526020600020908101906109ec91905b808211156121ba57600081556001016121a6565b5090565b6001600160e01b0319811681146109ec57600080fd5b6000602082840312156121e657600080fd5b8135611be2816121be565b60005b8381101561220c5781810151838201526020016121f4565b50506000910152565b6000815180845261222d8160208601602086016121f1565b601f01601f19169290920160200192915050565b602081526000611be26020830184612215565b60006020828403121561226657600080fd5b5035919050565b80356001600160a01b0381168114610b8057600080fd5b6000806040838503121561229757600080fd5b6122a08361226d565b946020939093013593505050565b6000806000606084860312156122c357600080fd5b6122cc8461226d565b92506122da6020850161226d565b9150604084013590509250925092565b600080604083850312156122fd57600080fd5b50508035926020909101359150565b6000806040838503121561231f57600080fd5b8235915061232f6020840161226d565b90509250929050565b634e487b7160e01b600052604160045260246000fd5b600067ffffffffffffffff8084111561236957612369612338565b604051601f8501601f19908116603f0116810190828211818310171561239157612391612338565b816040528093508581528686860111156123aa57600080fd5b858560208301376000602087830101525050509392505050565b6000602082840312156123d657600080fd5b813567ffffffffffffffff8111156123ed57600080fd5b8201601f810184136123fe57600080fd5b61119b8482356020840161234e565b60006020828403121561241f57600080fd5b611be28261226d565b6000806040838503121561243b57600080fd5b6124448361226d565b91506020830135801515811461245957600080fd5b809150509250929050565b6000806000806080858703121561247a57600080fd5b6124838561226d565b93506124916020860161226d565b925060408501359150606085013567ffffffffffffffff8111156124b457600080fd5b8501601f810187136124c557600080fd5b6124d48782356020840161234e565b91505092959194509250565b8381526001600160a01b038316602082015260606040820181905260009061250a90830184612215565b95945050505050565b6000806040838503121561252657600080fd5b61252f8361226d565b915061232f6020840161226d565b600181811c9082168061255157607f821691505b60208210810361257157634e487b7160e01b600052602260045260246000fd5b50919050565b6020808252602d908201527f4552433732313a2063616c6c6572206973206e6f7420746f6b656e206f776e6560408201526c1c881bdc88185c1c1c9bdd9959609a1b606082015260800190565b634e487b7160e01b600052601160045260246000fd5b808202811582820484141761068c5761068c6125c4565b60008261260e57634e487b7160e01b600052601260045260246000fd5b500490565b601f82111561086057600081815260208120601f850160051c8101602086101561263a5750805b601f850160051c820191505b8181101561265957828155600101612646565b505050505050565b815167ffffffffffffffff81111561267b5761267b612338565b61268f81612689845461253d565b84612613565b602080601f8311600181146126c457600084156126ac5750858301515b600019600386901b1c1916600185901b178555612659565b600085815260208120601f198616915b828110156126f3578886015182559484019460019091019084016126d4565b50858210156127115787850151600019600388901b60f8161c191681555b5050505050600190811b01905550565b6001600160a01b038316815260406020820181905260009061119b90830184612215565b60208082526025908201527f4552433732313a207472616e736665722066726f6d20696e636f72726563742060408201526437bbb732b960d91b606082015260800190565b60208082526032908201527f4552433732313a207472616e7366657220746f206e6f6e20455243373231526560408201527131b2b4bb32b91034b6b83632b6b2b73a32b960711b606082015260800190565b600083516127ee8184602088016121f1565b8351908301906128028183602088016121f1565b01949350505050565b7f416363657373436f6e74726f6c3a206163636f756e74200000000000000000008152600083516128438160178501602088016121f1565b7001034b99036b4b9b9b4b733903937b6329607d1b60179184019182015283516128748160288401602088016121f1565b01602801949350505050565b6001600160a01b03858116825284166020820152604081018390526080606082018190526000906128b390830184612215565b9695505050505050565b6000602082840312156128cf57600080fd5b8151611be2816121be565b8082018082111561068c5761068c6125c4565b634e487b7160e01b600052603260045260246000fd5b600081612912576129126125c4565b50600019019056fea26469706673582212208f8c6a57ecfd732b1cf4624c7f2ceb9e32607e3e1645d20df2411d95557b463a64736f6c63430008110033",
  "linkReferences": {},
  "deployedLinkReferences": {}
}